{
  "contractName": "Send",
  "abi": [
    {
      "inputs": [
        {
          "internalType": "address payable",
          "name": "_receiver",
          "type": "address"
        }
      ],
      "name": "sendAmount",
      "outputs": [],
      "stateMutability": "payable",
      "type": "function",
      "payable": true
    },
    {
      "inputs": [
        {
          "internalType": "address",
          "name": "_acount",
          "type": "address"
        }
      ],
      "name": "getBalance",
      "outputs": [
        {
          "internalType": "uint256",
          "name": "",
          "type": "uint256"
        }
      ],
      "stateMutability": "view",
      "type": "function",
      "constant": true
    }
  ],
  "bytecode": "0x608060405234801561001057600080fd5b50610257806100206000396000f3fe6080604052600436106100295760003560e01c8063210cb8c31461002e578063f8b2cb4f1461004a575b600080fd5b61004860048036038101906100439190610155565b610087565b005b34801561005657600080fd5b50610071600480360381019061006c91906101c0565b6100d1565b60405161007e9190610206565b60405180910390f35b8073ffffffffffffffffffffffffffffffffffffffff166108fc349081150290604051600060405180830381858888f193505050501580156100cd573d6000803e3d6000fd5b5050565b60008173ffffffffffffffffffffffffffffffffffffffff16319050919050565b600080fd5b600073ffffffffffffffffffffffffffffffffffffffff82169050919050565b6000610122826100f7565b9050919050565b61013281610117565b811461013d57600080fd5b50565b60008135905061014f81610129565b92915050565b60006020828403121561016b5761016a6100f2565b5b600061017984828501610140565b91505092915050565b600061018d826100f7565b9050919050565b61019d81610182565b81146101a857600080fd5b50565b6000813590506101ba81610194565b92915050565b6000602082840312156101d6576101d56100f2565b5b60006101e4848285016101ab565b91505092915050565b6000819050919050565b610200816101ed565b82525050565b600060208201905061021b60008301846101f7565b9291505056fea26469706673582212207b15f43ed5bd7b8cb8ab954ee8abd12b3b884783e80350ad4c398f2d8370ec5964736f6c634300080b0033",
  "immutableReferences": {},
  "source": "// SPDX-License-Identifier: MIT\npragma solidity >=0.4.22 <0.9.0;\n\ncontract Send {\n\n    function sendAmount(address payable _receiver) public payable {\n        _receiver.transfer(msg.value);\n    } \n\n    function getBalance(address _acount) public view returns(uint){\n        return address(_acount).balance;\n    }\n}",
  "sourcePath": "/Users/saurabhjaswal/Desktop/dapp/src/smart_contracts/contracts/Send.sol",
  "compiler": {
    "name": "solc",
    "version": "0.8.11+commit.d7f03943.Emscripten.clang"
  },
  "schemaVersion": "3.4.5",
  "updatedAt": "2022-03-02T02:38:14.689Z",
  "networkType": "ethereum",
  "devdoc": {
    "kind": "dev",
    "methods": {},
    "version": 1
  },
  "userdoc": {
    "kind": "user",
    "methods": {},
    "version": 1
  }
}